:100000000C94CC010C94E9010C94E9010C94E901E5
:100010000C94E9010C94E9010C94E9010C94E901B8
:100020000C94E9010C94E9010C941E140C945A13DD
:100030000C947A150C94E9010C94E9010C94E901F3
:100040000C94E9010C94E9010C94E9010C94E90188
:100050000C94E9010C9448150C94E9010C94E90105
:100060000C94E9010C94E9010C94E9010C94E90168
:100070000C94E9010C94E9010C94E9010C94E90158
:100080000C94E9010C94E9010C94E9010C94E90148
:100090000C94E9010C94E9010C94E9010C94E90138
:1000A0000C94E9010C94E9010C94E901CD05CD050E
:1000B0000B060B0654065F0806085F087406600707
:1000C000720772075B095E096109640967096A09B9
:1000D0006D09AC0DB10DBB0DAF0DB40DB90DB70D64
:1000E0006B119211321392113213DA11FD11321386
:1000F000FB120E13451D451D581D581D4E1D581D44
:10010000581D581D451D451D531D581D581D531D77
:1001100029002B002A00E100E30000001E0014006B
:1001200004001D00E00045001F001A0016001B001F
:10013000E2003B00200008000700060050002C00F1
:1001400021001500090019004F004300220017008C
:100150000A00050000003E0023003C0000003D00B6
:1001600000003F0024004C0000003B000000400065
:1001700025001C000B001100000041112600180092
:100180000D00100052003C0027000C000E0036004D
:1001900051002800560012000F0037002F00E60023
:1001A0002E001300330038713000420035003174E6
:1001B0003478E5003A000000290001000100010048
:1001C000010000003A001E0220022202010001008C
:1001D0003B001F0221022302010001003C002F020C
:1001E00026022F00010001003D00300227023000EE
:1001F000010001003E00310235003502000001001F
:1002000001000100000001000000010001000100E8
:1002100000000100000001003F00520051002402D4
:10022000000001004000240021001E000100010028
:100230004100250022001F00370001004200260077
:100240002300200027000100430025022E02310078
:100250002E000100440045000100010001000000E3
:1002600005010980A10185031601002603001A81FA
:10027000002A8300751095018100C0050C0901A1B9
:10028000018504160100269C021A01002A9C0275B1
:100290001095018100C005010906A101850505072A
:1002A00019E029E715002501950875018102050867
:1002B00019012905950575019102950175039101B3
:1002C0000507190029EF1500250195F07501810238
:1002D000C005010906A101050719E029E715002558
:1002E00001950875018102950175088101050819BC
:1002F0000129059505750191029501750391010587
:1003000007190029FF150026FF00950675088100D2
:10031000C009023B00020100A0FA09040000010329
:10032000010100092111010001224000070581039C
:1003300008000A090401000103000000092111015D
:1003400000012271000705820320000A120110013A
:1003500000000008EDFE0713010001020301040381
:100360003000000016034500720067006F00440073
:100370006F007800200045005A0000001603450079
:10038000720067006F0044006F0078002000450095
:100390005A0000000403090411241FBECFEFDAE065
:1003A000DEBFCDBF11E0A0E0B1E0E2EBF2E402C0BD
:1003B00005900D92AC3BB107D9F722E0ACEBB1E070
:1003C00001C01D92A83EB207E1F70E94821B0C9467
:1003D00057210C9400008F929F92AF92BF92CF92C0
:1003E000DF92EF92FF920F931F93CF93DF93CDB7DE
:1003F000DEB728970FB6F894DEBF0FBECDBFFC0165
:10040000F080118183819481892B09F4A1C61F3F5B
:1004100021F40FEFF01609F49BC66F0185E0DE01B1
:10042000119601900D928A95E1F7F601228189815A
:100430009A81222349F00E94D716082F682F8981BC
:100440009A810E94501703C00E942317082F26E0AC
:10045000129FF001112434E5039FE00DF11D1124DA
:10046000EF0DF11DEE0FFF1FE05FFE4F05911491A0
:100470000E3F8CE5180709F040C0F6018281882301
:10048000E1F19091AF0281E0890F8770987F85300C
:1004900020F4892B8093AF0202C09093AF02809129
:1004A000AF028770FFEF8F9FC0011124959587954C
:1004B00095958795992790938900809388009093CC
:1004C0008B0080938A0090938D0080938C004091E4
:1004D000AF025091B0026091B1027091B2028FE010
:1004E00090E00E94EE1F60919802709199028091B5
:1004F0009A0290919B020E944D0DF6018281882301
:1005000019F1033EFCE51F07C1F050F4013E3CE544
:10051000130781F0023E8CE51807B1F481E010C0AA
:10052000043E9CE5190759F0053EECE51E0761F411
:1005300084E006C01092AB0205C082E001C083E0F7
:100540008093AB020E94CE0A17FF73C0F60182812E
:10055000882309F4BEC08091D8018093BC01109219
:10056000D8018091AB02813071F048F08230D1F037
:100570008430F1F486EE0E94FF1E88E117C082EEFF
:100580000E94EE1D15C08EE099E00E94431088E1A4
:100590000E94EE1D88E10E94921D8EEF98E00E945D
:1005A000431006C082EE0E94EE1D87E50E94FF1EEA
:1005B0008FE39CE90197F1F700C000007801E8940F
:1005C000F7F85CE0A52EB12CC7010A2C02C0969565
:1005D00087950A94E2F7282F2F7041F0822F90E040
:1005E0002A3010F44D9604C0069702C087E290E0CE
:1005F0000E94FF1E94E0A91AB108ECEFAE16EFEFCF
:10060000BE0611F78091AB02813039F040F08230A4
:1006100031F0843051F488E206C08CE204C082EEEE
:100620000E94921D02C00E94FF1E8091BC01809317
:10063000D801003FFCE51F07B1F180F4083D3CE51F
:100640001307C9F0093D8CE51807C9F1073D9CE582
:100650001907C1F526E241EE61EE10C0023FECE55C
:100660001E0749F120F1033F2CE5120759F527E257
:1006700045EE66EE03C027E245EE65EEC60128961C
:100680000FB6F894DEBF0FBECDBFDF91CF911F91A3
:100690000F91FF90EF90DF90CF90BF90AF909F9021
:1006A0008F900C94C10E26E241EE60EEE7CF27E278
:1006B00045EE64EEE3CF26E241EE62EEDFCF28E2C4
:1006C00041E0DBCFF6018281882309F416C2109243
:1006D000BD010631FCE51F07A9F59091D801F6018F
:1006E0008281882381F09A7A81E009F480E0809306
:1006F000BE01811102C069E201C065E387E092E0BA
:100700000E94CE150BC08091BE01811102C069E22A
:1007100001C065E387E092E00E94A31528960FB61A
:10072000F894DEBF0FBECDBFDF91CF911F910F9127
:10073000FF90EF90DF90CF90BF90AF909F908F9001
:100740000C94911607312CE5120708F088C101308E
:100750003CE5130759F4F6018281882309F4F8C4B3
:100760008091D50281608093D502F2C402308CE57D
:10077000180708F42CC1F6018281882309F4AEC160
:1007800080E090E00E94D61F8F3E9E4F11F00E94A5
:1007900017160E9406169093C2028093C1020F3072
:1007A0002CE5120709F4CDC008F042C008308CE5F2
:1007B000180709F4A8C0F0F40430ECE51E0709F4AA
:1007C00090C068F402302CE5120709F486C00330AB
:1007D0001C4509F0D9C08091C1028260D3C00630A7
:1007E0008CE5180709F487C008F089C08091C10220
:1007F0008860C8C00B30ECE51E0709F493C068F4AC
:1008000009302CE5120709F482C00A301C4509F0B2
:10081000BBC08091C10288607EC00D308CE5180796
:1008200009F484C008F085C08091C1028D7FAAC000
:10083000073FECE51E0709F457C050F502312CE5DF
:10084000120709F486C068F400318CE5180709F432
:100850007CC001311C4509F097C08091C1028F7B9B
:1008600091C00431ECE51E0709F483C008F475C09B
:1008700005311C4509F088C08091C10282FB222706
:1008800020F991E0922790FB82F990FB83F97AC0DE
:100890000A3F3CE5130709F450C058F4083F9CE5B3
:1008A000190729F1093F1C4509F06EC08091C20269
:1008B0005CC00C3FFCE51F0709F454C070F10D3F0C
:1008C0001C4509F061C08091C202982F90959170EB
:1008D0008E7F892B90FB81F949C08091C102816094
:1008E00051C08091C10217C08091C20219C080918D
:1008F000C20282603BC08091C102806143C080918E
:10090000C10280623FC08091C10280643BC080917F
:10091000C102806837C0846035C08091C2028260A5
:10092000816024C08091C1028E7F2CC08091C10261
:1009300017C08091C102877F25C08091C2028D7F40
:1009400015C08091C1028F7E1DC08091C1028F7D34
:1009500019C08091C1028F7715C08091C102877F35
:100960008B7F10C08091C2028D7F8E7F8093C202E8
:100970000BC08091C10287FB222720F991E09227CA
:1009800090FB87F98093C1026091C1021091C2026D
:1009900084E090E00E94DC1F612F81E290E00E94E1
:1009A000DC1F1092D80128960FB6F894DEBF0FBE58
:1009B000CDBFDF91CF911F910F91FF90EF90DF900E
:1009C000CF90BF90AF909F908F900C946A1D0115AF
:1009D0001C4509F083C0F6018281882309F4B8C35D
:1009E0001092D8010E946A1DFFEF04E31CE0F15051
:1009F00000401040E1F700C00000F89481E08093CF
:100A0000E00080E28093D8001092C9008FE19EE45C
:100A10000197F1F700C000001DBA109268001CBCDD
:100A200010BE1FBA10927A0010926E0010926F00E2
:100A300010927100109272001092C9001092BC00C6
:100A400014B817B81AB81DB810BA1092BC0015B86F
:100A500018B81BB81EB811BA0C94003F79C30E3DEC
:100A6000ECE51E07C9F4F6018281882309F470C3FE
:100A700028960FB6F894DEBF0FBECDBFDF91CF91A1
:100A80001F910F91FF90EF90DF90CF90BF90AF90AC
:100A90009F908F900C9417160F3DFCE51F07C0F434
:100AA0000C3D2CE5120741F4F6018281882309F4FC
:100AB0004FC31092A8024CC30D3D1C4579F4F601BA
:100AC0008281882309F444C382E08093A80240C352
:100AD000C801875F9C45079708F44DCEF6018281D7
:100AE000008111818823F1F0C8010E94D716F82EE9
:100AF000682FC8010E94501719C00631FCE51F0776
:100B000009F4EBCD08F00DC301303CE5130709F4FF
:100B100022CE08F030CE01151C4509F45CCFF60159
:100B200000811181C8010E942317F82EB8018F2D72
:100B30000E94D40A182F382FF601258122952F7094
:100B40000281011110929E0280919C028770A9F08F
:100B5000002399F080E2810F883078F082E02F83C3
:100B600038879E830E94B11780919C028770EE2483
:100B7000E3942F8138859E818111E12CA92EA294C6
:100B80004FE0A422B12CFCE0AF16B10408F097C2EC
:100B9000F501EA5AFF4F0C942420892F807F9F7023
:100BA000F92E882319F0F29480EFF8220023B9F08F
:100BB000FF2009F415C280E2810F883010F0311156
:100BC00006C09091D801F92AF092D80105C0909101
:100BD0009E02F92AF0929E020E94911601C2812F74
:100BE00038870E94921D3885FF2009F468C2105E84
:100BF000F094183010F0311106C09091D801F9220C
:100C0000F092D80105C090919E02F922F0929E02C6
:100C10000E94911654C2492F407F892F8F70403215
:100C200011F08295807F332319F03130E9F025C02F
:100C3000002381F030919F02222351F0213041F4B2
:100C4000982F932B391709F43AC290939F0237C219
:100C5000832B17C0222319F0213009F430C28E8370
:100C60000E948B168E811DC0002321F0223008F0D7
:100C700026C207C0211123C214C0002329F021116C
:100C8000AFC10E94881D1BC2222359F0193309F0FD
:100C9000B9C10FEF27EE33E0015020403040E1F7BB
:100CA000AFC10E947D1D0BC2292F2695269523706A
:100CB00030E02115310521F02130310559F0FFC117
:100CC000002319F0812F937002C080E090E00E9411
:100CD000AC0AFEC1002319F0812F937002C080E09E
:100CE00090E00E94960AF4C1892F837009F070C0C9
:100CF0000111ECC1812F829586958770880F880F2E
:100D0000412F4F7050E060E070E04A015B01082E17
:100D100004C0880C991CAA1CBB1C0A94D2F714FFAF
:100D200012C00FE010E020E030E004C0000F111FFF
:100D3000221F331F8A95D2F7B901A801409550951B
:100D40006095709503C040E050E0BA019695969585
:100D50009370892F90E08230910529F183309105BD
:100D6000C9F00091A0021091A1022091A20230913D
:100D7000A302019759F0482959296A297B29CB01F7
:100D8000BA0160237123822393230AC0802A912A07
:100D9000A22AB32ACB01BA01682979298A299B2979
:100DA0000E94EB1793C1482959296A297B29809110
:100DB000A0029091A102A091A202B091A3028A0187
:100DC0009B01082719272A273B27C901B801E8CF2B
:100DD000002319F0892F817001C08695882309F4BA
:100DE00075C1812F829586958770880F880F412F56
:100DF0004F7050E060E070E04A015B01082E04C0D3
:100E0000880C991CAA1CBB1C0A94D2F714FF12C0B0
:100E10000FE010E020E030E004C0000F111F221F9F
:100E2000331F8A95D2F7B901A80140955095609576
:100E3000709503C040E050E0BA0196959695937086
:100E4000892F90E082309105E9F08330910579F1A6
:100E5000009198021091990220919A0230919B0280
:100E6000019759F0482959296A297B29CB01BA01F0
:100E7000602371238223932320C0802A912AA22AEF
:100E8000B32A15C0482959296A297B2980919802DB
:100E900090919902A0919A02B0919B028A019B01C4
:100EA000082719272A273B27C901B80106C0CB010B
:100EB000BA01682979298A299B290E94801706C1CD
:100EC0009F70F92E002339F0892F0E94CA17812FB5
:100ED0000E94881DFBC0812F0E947D1D8F2D0E94C6
:100EE0008C17F4C0812F323FC9F128F4303F49F00C
:100EF000313F79F170C0333FC1F1343F09F44DC047
:100F00006AC0002311F12111DAC0292F2F7181E06D
:100F100090E0A0E0B0E0AC01BD0104C0440F551F5B
:100F2000661F771F2A95D2F78091980290919902B7
:100F3000A0919A02B0919B028A019B010827192770
:100F40002A273B27C901B80125C0223008F0B7C0C5
:100F5000DCCF002329F0892F8F712EC00023D9F315
:100F6000892F8F710E948C17AAC0002381F0292F2E
:100F70002F7181E090E0A0E0B0E0BC01CD0104C0A1
:100F8000660F771F881F991F2A95D2F703C060E06C
:100F900070E0CB010E94801792C0002381F0192FCE
:100FA0001F71812F0E94CA1728E0129FC0011124CF
:100FB000836080939C02812F0E94CA1780C081E0C9
:100FC0002F830E94B1172F81223008F478C082E06D
:100FD0000E94B11774C0002339F0222309F4BBCF5B
:100FE000812F0E94EE1D6BC0222309F4B9CF8933F3
:100FF00049F43FEF87EE93E0315080409040E1F7B5
:1010000000C00000812F0E94921D59C0323FB1F0F4
:1010100028F4303F49F0313FF9F028C0343FB9F0AF
:1010200058F0353F71F022C0002309F451C090916F
:10103000280281E0892708C081E008270093280260
:1010400047C0011145C081E08093280241C00111D1
:101050003FC0109228023CC0002329F08091270253
:10106000882329F329C0222311F332C0809127025B
:101070002223C1F0882341F09091280281E0892742
:101080008093280210922702812F002319F00E94DA
:10109000EE1D1EC00E94921D86E0F60111928A95F7
:1010A000E9F716C08823A1F0011112C0909128021F
:1010B00081E08927809328021092270209C0F8E076
:1010C000AF1AB10804E0A016B10410F40E94C20ADD
:1010D000EE20F1F180919C0280FD3AC0F60112826F
:1010E0008595859585950E94CA17C6010E94EB01DA
:1010F00080919C0285958595859528960FB6F894E4
:10110000DEBF0FBECDBFDF91CF911F910F91FF903A
:10111000EF90DF90CF90BF90AF909F908F900C9406
:101120008C170E3DECE51E0709F49DCC50F40C3DE8
:101130002CE5120709F4B8CC0D3D1C4509F4BFCCD1
:10114000EECCC801875F9C45079708F414CBE7CC29
:1011500028960FB6F894DEBF0FBECDBFDF91CF91BA
:101160001F910F91FF90EF90DF90CF90BF90AF90C5
:101170009F908F9008959091C10292FF0DC0282FEB
:101180002871283019F4877F846006C0282F2471C5
:10119000243011F48B7F886093FF0DC0282F2871B5
:1011A000283119F4877E846106C0282F24712431E8
:1011B00011F48B7E88612091C20220FF0DC0382F70
:1011C0003871383019F4877F816006C0382F31714B
:1011D000313011F48E7F886021FF0DC0282F2871D7
:1011E000283119F4877E816106C0282F21712131B1
:1011F00011F48E7E886194FD877E0895282F2770D4
:1012000081E090E001C0880F2A95EAF780959091DF
:101210009E02892380939E020C949116282F27709A
:1012200081E090E001C0880F2A95EAF790919E0234
:10123000892B80939E020C949116CF93E82F8730D0
:1012400080F58091070190910801892B09F047C032
:10125000CE2F64E670E080E40E94181F909308018E
:1012600080930701892BD1F464E670E082E10E944B
:101270006F1F9093080180930701892B79F481E017
:1012800090E001C0880FCA95EAF764E670E08095A7
:101290000E946F1F9093080180930701CF910C94D7
:1012A000C41F90E0FC013797E730F105C0F4EE5918
:1012B000FF4F0C942420209A289811C0219A299835
:1012C0000EC0229A2A980BC0239A2B9808C0529AD3
:1012D0005A9805C0539A5B9802C03E9A4698CF919F
:1012E0000895CF93873008F03FC080910701909117
:1012F0000801892B09F041C064E670E080E40E9497
:10130000181F9093080180930701892B11F0C0E00A
:1013100027C064E670E083E10E946F1F909308018C
:1013200080930701892B99F764E670E081E40E94BD
:10133000181F9093080180930701892B41F784E6D9
:1013400090E00E949F1F97FF05C090930801809333
:101350000701DDCFC82FC095109208011092070138
:101360000E94C41F8C2F0AC09FB18FB1807F8695C9
:1013700086959370892B809501C080E0CF91089568
:10138000EF92FF920F931F93CF93DF93CDB7DEB70A
:1013900067970FB6F894DEBF0FBECDBF4B8B5C8B4B
:1013A0006D8B7E8B8F8B0E891F8901151105C1F105
:1013B0005F3F11F44F3FA1F1E42EF12CA1E0B0E02A
:1013C000042E01C0AA0F0A94EAF7852F90E0662345
:1013D00019F02091280206C09C0127533E4FF901C5
:1013E00020812A232223A9F046E0489F9001499FAB
:1013F000300D1124F701E20FF31FEE0FFF1FED5E1A
:10140000FE4F40815181FC01E753FE4F9081A92B93
:1014100006C0FC01E753FE4FA0958081A823A0835E
:1014200086E0FE013D96DF01982F1D929A95E9F71F
:101430004D875E876F87198B088BDE0117960190A9
:101440000D928A95E1F7CE0107960E945A188111F4
:1014500037C086E0FE013796DE01119601900D92AD
:101460008A95E1F7FF81E8856A857B8561157105BD
:1014700039F1EF3F11F4FF3F19F120912F0230E0D5
:10148000C9010196877099274091600250E0841746
:10149000950779F1F983EA837D836C8396E0929FC7
:1014A000D001939FB00D1124A05DBD4FFE01319678
:1014B00001900D929A95E1F780932F020E94F51703
:1014C00016E08091600290912F02891711F1189F08
:1014D000C0011124805D9D4F0E945A188823C9F0D5
:1014E0008091600290E00196877099278093600256
:1014F000E8CF1092D8010E946A1D10922F0210921C
:101500006002E9E2F2E086E0DF011D928A95E9F7E8
:10151000D7CF67960FB6F894DEBF0FBECDBFDF9171
:10152000CF911F910F91FF90EF9008952091C701E7
:101530003091C8018217930771F09093C80180938E
:10154000C701E091C302F091C402309721F00084FA
:10155000F185E02D099408952091C5013091C601CF
:101560008217930771F09093C6018093C501E091B3
:10157000C302F091C402309721F00680F781E02D7C
:1015800009940895E091C302F091C402309721F0CC
:101590000190F081E02D099480E008956091AB0204
:1015A0008CE090E00C94DC1FCF93DF9326E0729FD9
:1015B000F001112434E5839FE00DF11D1124E60FA5
:1015C000F11DEE0FFF1FE05FFE4FC591D491CE01DC
:1015D000C238D10569F1B0F4C133D10509F475C041
:1015E00048F4C932D10509F469C0CA32D10509F4F9
:1015F00073C079C0C533D10509F459C0C933D105C9
:10160000B9F071C0C33ED10571F138F4C03ED105C7
:10161000B1F0C23ED10511F166C0C63ED105B9F1A7
:10162000C73ED105C9F1C43ED10509F05CC024C054
:101630002091C10220FD29C221FD27C22BC2209189
:10164000C10220FD1CC22091C20220FF23C2809152
:10165000C10284FDC6C183EE90E01CC22091C1028C
:1016600022FF18C2F4CF8091C10282FD0BC280918B
:10167000C20280FD0AC2EBCF2091C20221FF0AC242
:101680008091C10284FDADC187EE90E003C220913C
:10169000C10223FFFFC1F4CF8091C10283FDF8C1D5
:1016A0008091C20281FFECCF84EE90E0F3C12091E3
:1016B000C10225FFEFC189E290E0ECC12091C10297
:1016C00025FFE8C185E390E0E5C12091C10226FF36
:1016D000E1C18AE290E0DEC12091C10226FFDAC1B9
:1016E00081E390E0D7C1C11540E5D40708F047C0B9
:1016F000C11520E4D20708F034C1C83ED10518F561
:10170000C03ED10508F0C6C1C83AD10570F4C53A4B
:10171000D10508F0B1C0C130D10509F4BBC108F44E
:1017200060C1249708F45DC1B5C1CF3BD10508F471
:10173000AEC0C03CD10508F454C1FE01EE0FFF1F3E
:10174000E052FF4F03C1C11530E2D30760F4C11569
:1017500041E0D40708F09EC1C03FD10508F441C163
:10176000CE01906597C1C11580E3D80708F0F1C09C
:10177000FE01FF70EE0FFF1FE05AFD4FE7C0C115DD
:1017800095E5D90708F044C0C11524E5D20708F053
:1017900002C1C11532E5D30710F5C11541E5D407E3
:1017A00008F0E4C08C2F837021E030E002C0220FEB
:1017B000331F8A95E2F73C68CE0174E096958795D1
:1017C0007A95E1F78370382BEC2FEF70E695E6956C
:1017D00040E2E49FC0011124822B932B5BC12C2F8C
:1017E00026952695AE0143705527C115D34508F0BF
:1017F000C3C080E2289F9001112481E090E002C0E4
:10180000880F991F4A95E2F7822B932B9C6842C15F
:10181000C1159AE5D907A8F4C11529E5D20708F042
:10182000C9C0C11536E5D30708F4BBC0C11548E5EA
:10183000D40708F4D6C0FC2FEE27CF01806F906A42
:1018400029C1C1158BE5D80708F4CBC0C1159CE5AB
:10185000D90708F4C2C0CE0190568115904208F015
:10186000C0C08D2F8F710E94BB08FE01FF27F06260
:101870008F719F01382BAFC0C53AD10509F4B4C0B0
:10188000C63AD10509F0B3C082E890E403C1C83A72
:10189000D10509F4AFC0C93AD10509F4AEC0CA3ABE
:1018A000D10509F4ADC0CB3AD10509F4ACC0CC3AAE
:1018B000D10509F4ABC0CB3BD10509F4AAC0CC3BA0
:1018C000D10509F4A9C0CD3AD10509F4A8C0C03B9F
:1018D000D10509F4A7C0CE3AD10509F4A6C0CF3A84
:1018E000D10509F4A5C0C13BD10509F4A4C0C23B90
:1018F000D10509F4A3C0C33BD10509F4A2C0C43B80
:10190000D10509F4A1C0C53BD10509F4A0C0C63B6F
:10191000D10509F49FC0C73BD10509F49EC0C83B5F
:10192000D10509F49DC0C93BD10509F49CC0CD3B4C
:10193000D10509F49BC0CE3BD10509F49AC0CA3B3E
:10194000D10509F499C080E094E4A4C085919491F4
:10195000A1C0CE019927D3FF02C0986C9BC0906CA8
:1019600099C0FE01FF70CF01906A94C0FC2FEE2752
:10197000CF01816F906A8EC090E2299F900111245F
:1019800081E090E002C0880F991F4A95E2F7822B10
:10199000932B9A687FC0FC2FEE27CF01846F906A4B
:1019A00079C08C2F0E94BB088F7190E0982F8827F8
:1019B000906270C08C2F8F700E94BB08FE0194E073
:1019C000F695E7959A95E1F7EF70F0E0FE2FEE2798
:1019D000F0699F01282BC9015DC0CE01992790664F
:1019E00059C080E090E056C081E890E453C083E89D
:1019F00090E450C082EE94E44DC089EE94E44AC075
:101A00008AEE94E447C085EB94E444C086EB94E40A
:101A100041C083EB94E43EC084EB94E43BC087EB8D
:101A200094E438C08CEC94E435C08DEC94E432C07E
:101A300083E895E42FC08AE895E42CC082E995E418
:101A400029C084E995E426C081E296E423C083E2BC
:101A500096E420C084E296E41DC085E296E41AC0B4
:101A600086E296E417C087E296E414C08FE694E419
:101A700011C080E794E40EC08AE296E40BC089E3CB
:101A800090E008C082EE90E005C080EE90E002C0D9
:101A900086EE90E0DF91CF910895CF92DF92EF92A2
:101AA000FF920F931F936C01EE24FF24C114D10405
:101AB000E104F10411F0E0E103C06B017C01E0E01E
:101AC00033272F2D1E2D0D2D011511052105310553
:101AD00019F0E85F6801790197018601F4E0369515
:101AE000279517950795FA95D1F701151105210549
:101AF000310519F0EC5F680179019701860152E028
:101B000036952795179507955A95D1F70115110523
:101B10002105310519F0EE5F680179019701860111
:101B20003695279517950795012B022B032B09F066
:101B3000EF5F56985E9825982D9826982E982798AE
:101B40002F980E2F10E0F8013197E730F105A8F437
:101B5000E759FF4F0C942420259A2D9A0EC0259A00
:101B60002D9A269A2E9A09C0259A2D9A04C0259A54
:101B70002D9A269A2E9A279A2F9A1F910F91FF90AD
:101B8000EF90DF90CF90089580E290E0909308016D
:101B9000809307018091C20181110EC00E94121F23
:101BA00081E08093C2012FEF83ED90E321508040CC
:101BB0009040E1F700C0000064E670E080E40E941D
:101BC000181F9093080180930701892B09F04EC0DC
:101BD00064E670E080E00E946F1F9093080180939C
:101BE0000701892B09F042C064E670E080E00E94A2
:101BF0006F1F9093080180930701892BB9F564E664
:101C000070E08FE30E946F1F90930801809307019B
:101C1000892B61F50E94C41F64E670E080E40E9495
:101C2000181F9093080180930701892BF9F464E64B
:101C300070E08CE00E946F1F909308018093070171
:101C4000892BA1F464E670E080E00E946F1F9093FE
:101C5000080180930701892B49F464E670E08FE363
:101C60000E946F1F90930801809307010E94C41F78
:101C7000809107010895CF93DF9356985E98259839
:101C80002D9826982E9827982F98C8E8D0E08FEFA7
:101C900090E099838883AAE8B0E011969C938E9394
:101CA000ECE8F0E091838083259A2D9A2FEF80E76E
:101CB00092E0215080409040E1F700C00000269A59
:101CC0002E9A2FEF80E792E0215080409040E1F77C
:101CD00000C00000279A2F9A2FEF80E792E0215052
:101CE00080409040E1F700C0000025982D982FEF2C
:101CF00080E792E0215080409040E1F700C0000072
:101D000026982E982FEF80E792E021508040904057
:101D1000E1F700C0000027982F988091AF028770EC
:101D20002FEF829FC00111249595879595958795F2
:101D300099279983888311969C938E9391838083AE
:101D400056985E9825982D9826982E9827982F9823
:101D5000DF91CF91089584B1807F84B985B1807F70
:101D600085B98AB1837F8AB98BB1837F8BB93E985D
:101D70004698089580B38C7080BB81B3836F81BB1C
:101D800008956F927F928F929F92AF92BF92CF925F
:101D9000DF92EF92FF920F931F93CF93DF931F92E7
:101DA000CDB7DEB7742E622EFC018281882331F11B
:101DB0006093BD0169830E946E159093C401809366
:101DC000C301698180E2860F883008F080C06770A7
:101DD00081E001C0880F6A95EAF70F90DF91CF91FB
:101DE0001F910F91FF90EF90DF90CF90BF90AF9039
:101DF0009F908F907F906F900C94881D9091BD0163
:101E000096134AC04091C3015091C4018FB7F89412
:101E10000091A4021091A5022091A6023091A70280
:101E20008FBF48015901AA24BB246A01E12CF12C7F
:101E3000041B150B8C149D04AE04BF0410F4015058
:101E40001109083C110540F510E2170D9715B9F07E
:101E500080E2890F883040F4977081E001C0880FDC
:101E60009A95EAF70E947D1D183048F481E0972D7D
:101E7000977001C0880F9A95EAF70E94881D862DF9
:101E80000E94FF1E183018F5972D977081E001C051
:101E9000880F9A95EAF70AC080E2860F8830B8F476
:101EA000677081E001C0880F6A95EAF70F90DF91B3
:101EB000CF911F910F91FF90EF90DF90CF90BF9047
:101EC000AF909F908F907F906F900C947D1D0F909E
:101ED000DF91CF911F910F91FF90EF90DF90CF9006
:101EE000BF90AF909F908F907F906F9008959F923A
:101EF000AF92BF92CF92DF92EF92FF920F931F9318
:101F0000CF93DF938091070190910801892B91F085
:101F10008091C1018F5F8093C10181110BC00E942C
:101F2000C40D90E09093080180930701892B11F470
:101F30000E943B0E03EB12E02AEBE22E22E0F22E8F
:101F40006801C0E0912C97E0A92EAC0E8C2F0E9466
:101F50001D098A2D0E941D098C2F0E947109F6010E
:101F60009081981721F08083BB24B39401C0B12CD9
:101F70008A2D0E947109F7019081981719F08083CA
:101F800081E001C080E0B82A9B280E94AB0ECF5FA1
:101F9000FFEFCF1ADF0A8FEFE81AF80AC73099F679
:101FA0000E946E156AEF70E00E9410209C01682F5D
:101FB0008091C0018823E9F11092C001E091A9024B
:101FC000F091AA02DF011E9690E07BEF8AEFE82EE7
:101FD000F12C80818B3FA9F0482F50E0681728F042
:101FE000E901C41BD50BAE0106C06701C41AD50AAE
:101FF000A601420F531F4F30510514F0708301C0EA
:1020000091E03196EA17FB0721F79093C0019110F8
:1020100002C0911110C01092BF01A091A902B0910D
:10202000AA029091C001E6ECF2E080E03EE03E0FB3
:1020300007C09110F0CF8091BF018111ECCF16C085
:10204000E80129918E014081421741F04C914B3FAC
:1020500021F46C93208391E001C081E011963196C8
:102060003E13EECF9093C0018093BF01892DDF9185
:10207000CF911F910F91FF90EF90DF90CF90BF9085
:10208000AF909F900895CF93DF93EC0180EEFE0117
:10209000099581EEFE01DF91CF910994CF92DF92F5
:1020A000FF920F931F93CF93DF931F92CDB7DEB7AD
:1020B000F82E8B0199830E94991A998181111CC075
:1020C000CF2CD92E01151105B1F08091E80085FDC6
:1020D0000AC08091E8008E778093E8000E94991AE8
:1020E000882381F309C0F60181916F018093F1008B
:1020F00001501109E7CF80E00F90DF91CF911F9140
:102100000F91FF90DF90CF9008951F93CF93DF93AF
:10211000CDB7DEB7AA970FB6F894DEBF0FBECDBF1E
:10212000EFEFF1E088E08E0F9091F10091938E1324
:10213000FBCF80910002833009F460C030F481301D
:1021400071F0823009F49CC0B3C08A3009F488C0B1
:102150008B3009F46BC0893009F0AAC020C080918F
:10216000FF01813A09F0A4C08091E800877F809345
:10217000E8008091030290910402892B21F460E22F
:102180008BED91E003C060E080E090E070E00E94A1
:102190001F1B8091E8008B778093E80089C08091B5
:1021A000FF01813209F084C0809103029091040202
:1021B000029708F07DC08091E800877F8093E80057
:1021C0008091E80082FD05C08091FD018111F8CF6A
:1021D0006FC02091F3008091F20090E0922B029763
:1021E00029F48091F1008B7F813021F48091F100FE
:1021F0008093DA018091E8008B7756C08091FF01CF
:10220000813A09F055C08091030290910402892B14
:1022100009F04EC08091E800877F8093E8008091AC
:10222000E80080FFFCCF8091060139C08091FF015A
:102230008132F1F58091030290910402892BC1F55E
:102240008091E800877F8093E8000E94CB1A8091FC
:102250000102809306011092D8010E946A1D28C0D5
:102260008091FF01813221F58091E800877F809382
:10227000E8000E94CB1A809102028093D90118C015
:102280008091FF01813AA1F48091E800877F8093DB
:10229000E8008091E80080FFFCCF8091D901809315
:1022A000F1008091E8008E778093E8000E94CB1ABD
:1022B0008091E80083FFD6C18091FF0190910002D8
:1022C000492F50E04A30510508F0CCC1FA01E059DD
:1022D000FF4F0C942420803821F0823809F0C2C1CD
:1022E00008C08091FB019091FC01992389F08260E4
:1022F0000FC0809103028F70873008F0B3C18093C4
:10230000E9008091EB0085FB882780F91092E900B5
:102310009091E800977F9093E8008093F1001092ED
:10232000F10074C1282F2D7F09F09CC1882319F07A
:10233000823061F097C180910102813009F092C131
:10234000933009F080E08093FC012EC0809101025F
:1023500081112AC0809103028F702FEF280F263041
:1023600008F080C18093E9002091EB0020FF1CC0A1
:10237000933021F48091EB00806214C09091EB00C7
:1023800090619093EB0021E030E0A90102C0440F7E
:10239000551F8A95E2F74093EA001092EA00809177
:1023A000EB0088608093EB001092E9008091E800D8
:1023B000877F2FC1811156C1109101021F77809133
:1023C000E3008078812B8093E3008091E800877F91
:1023D0008093E8000E94CB1A8091E80080FFFCCF38
:1023E0008091E30080688093E300111102C082E0D5
:1023F00001C083E08093FD0135C18058823008F030
:1024000031C180910102909102028C3D53E0950709
:1024100079F583E08A838AE289834FB7F894DE01F5
:10242000139620E03EE051E2E32FF0E05093570096
:10243000E49120FF03C0E295EF703F5FEF708E2FB5
:1024400090E0EA3010F0C79601C0C0968D939D933E
:102450002F5F243149F74FBF8091E800877F809339
:10246000E8006AE270E0CE0101960E941F1BBDC029
:102470004091030250910402292F33272330310564
:10248000B9F06CF42130310509F4FBC0223031057C
:1024900009F0E8C08BE390E0E1E1F3E054C02132C1
:1024A000310509F433C02232310509F43CC0DAC0E9
:1024B000992781309105D1F05CF4892B09F0D2C0C5
:1024C000E4E9F3E0E4918E2F90E0E4E9F3E038C032
:1024D0008230910599F0039709F0C4C0EEE5F3E06E
:1024E000E4918E2F90E0EEE5F3E02AC0ECE7F3E014
:1024F000E4918E2F90E0ECE7F3E022C0E4E6F3E015
:10250000E4918E2F90E0E4E6F3E01AC04115510506
:1025100009F4BCC04130510509F0A4C089E090E045
:10252000ECE3F3E010C04115510509F4B4C04130AB
:10253000510509F097C081E790E0E0E6F2E003C0C2
:10254000009709F48FC02091E800277F2093E800CE
:1025500020910502309106022817390708F4C901B5
:1025600040E0009789F12091FD01222309F43DC04C
:102570002530D9F12091E80023FD37C02091E800F3
:1025800022FD2FC02091E80020FFEBCF4091F30007
:102590002091F20030E0342B009759F028303105BB
:1025A00040F444914093F100319601972F5F3F4FE3
:1025B000F3CF41E02830310509F040E02091E800F8
:1025C0002E772093E800CDCF4111CDCF0AC0809166
:1025D000FD01882351F0853041F08091E80083FDB2
:1025E00004C08091E80082FFF2CF8091E8008B77F1
:1025F0008093E80037C08038A9F58091E800877F94
:102600008093E8008091FE018093F1008091E800C2
:102610008E778093E8000E94CB1A24C0811122C0DB
:10262000109101021230F0F48091E800877F8093CE
:10263000E8001093FE010E94CB1A111106C0809190
:10264000E30087FD02C081E001C084E08093FD01CA
:1026500042E061EC81E00E94EA1A42E261EC82E031
:102660000E94EA1A8091E80083FF1AC08091E80076
:10267000877F8093E8008091EB0080628093EB007D
:102680000FC082E190E0ECE4F3E05DCF89E090E000
:10269000E3E2F3E058CF80E490E0E1EDF2E053CFE5
:1026A000AA960FB6F894DEBF0FBECDBFDF91CF91D3
:1026B0001F9108951F920F920FB60F9211242F931E
:1026C0003F934F935F936F937F938F939F93AF93BA
:1026D000BF93CF93DF93EF93FF93C091E900CF7047
:1026E0008091EC00D82FD17080FDD0E81092E900E5
:1026F0008091F000877F8093F00078940E9485108D
:102700001092E9008091F00088608093F000CD2B5A
:10271000CF70C093E900FF91EF91DF91CF91BF910E
:10272000AF919F918F917F916F915F914F913F9169
:102730002F910F900FBE0F901F901895E8EDF0E0CD
:1027400080818E7F80831092E2001092DA001092D6
:10275000E100A0EEB0E08C9181608C9380818F7756
:10276000808319BCA7EDB0E08C918E7F8C93808123
:102770008F7E80831092D7010895CF92DF92EF92DF
:10278000FF920F931F93CF93DF93C8EDD0E0888122
:102790008F7E8883E7EDF0E080818160808384E034
:1027A00082BF81E08093D70188818E7F888302EE8B
:1027B00010E0F80110821092DA0081EEC82ED12CC0
:1027C000F601108288818F7788838881806888836A
:1027D00088818F7D888319BC1092FD011092FE01C3
:1027E0001092FC011092FB0190EEE92EF12CF70102
:1027F00080818B7F808388818160888342E060E074
:1028000080E00E94EA1AF60180818E7F8083F801C1
:10281000808181608083808188608083F7018081EE
:102820008E7F8083888180618883DF91CF911F9123
:102830000F91FF90EF90DF90CF9008951F920F922D
:102840000FB60F9211242F933F934F935F936F9383
:102850007F938F939F93AF93BF93EF93FF93809159
:10286000E10082FF09C08091E20082FF05C08091F3
:10287000E1008B7F8093E1008091DA0080FF2AC025
:102880008091D80080FF26C08091DA008E7F8093EF
:10289000DA008091D90080FF18C080E189BD82E113
:1028A00089BD09B400FEFDCF81E08093FD018091D8
:1028B000D70181110FC00E949E130E94BD13809109
:1028C000E20084608093E20005C019BC1092FD0113
:1028D0001092D7018091E10080FF17C08091E20043
:1028E00080FF13C08091E2008E7F8093E200809190
:1028F000E20080618093E2008091D8008062809342
:10290000D80019BC85E08093FD018091E10084FF2F
:1029100034C08091E20084FF30C080E189BD82E153
:1029200089BD09B400FEFDCF8091D8008F7D8093D2
:10293000D8008091E1008F7E8093E1008091E200D9
:102940008F7E8093E2008091E20081608093E200BC
:102950008091FE01882311F084E007C08091E3009C
:1029600087FD02C081E001C083E08093FD011092E9
:10297000D8010E946A1D0E94C20A8091E10083FF73
:1029800027C08091E20083FF23C08091E100877F10
:102990008093E10082E08093FD011092FE0180911E
:1029A000E1008E7F8093E1008091E2008E7F809332
:1029B000E2008091E20080618093E20042E060E00A
:1029C00080E00E94EA1A8091F00088608093F00015
:1029D000FF91EF91BF91AF919F918F917F916F91F7
:1029E0005F914F913F912F910F900FBE0F901F90CD
:1029F00018958091DA010895CF93DF932091A80272
:102A0000211103C02091FD0102C0223011F02430B9
:102A1000E1F520910601222339F02091C10227FF20
:102A200003C060E222E002C068E021E02093E900F8
:102A30002FEF3091E800215035FD06C035ED3A9575
:102A4000F1F700002111F5CF2091E80025FF1DC00E
:102A5000EC0180910601811105C040E050E068E082
:102A600070E003C070E040E050E0CE010E944E10E4
:102A70008091E8008E778093E80080E2FE01ABED64
:102A8000B1E001900D928A95E1F7DF91CF91089521
:102A900078941F920F920FB60F9211248F939F93E9
:102AA000AF93BF938091A4029091A502A091A6023A
:102AB000B091A7020196A11DB11D8093A40290932D
:102AC000A502A093A602B093A702BF91AF919F91D8
:102AD0008F910F900FBE0F901F9018952FB7F894FD
:102AE0008091A4029091A502A091A602B091A702A4
:102AF0002FBF08951F920F920FB60F9211248F933C
:102B00009F93AF93BF938091C502811113C08091B1
:102B1000A4029091A502A091A602B091A7024196AD
:102B2000A11DB11D8093A4029093A502A093A602BB
:102B3000B093A702BF91AF919F918F910F900FBE5D
:102B40000F901F90189520910601222321F02091CB
:102B5000C10227FD04C0FC013296089619C0262F39
:102B60002695269526952E31C0F4FC01E20FF11D25
:102B7000677081E090E001C0880F6A95EAF7809560
:102B800092818923828308953196E817F90729F005
:102B900020812613F9CF1082F7CF089520910601E6
:102BA000222321F02091C10227FD05C0FC013296AD
:102BB0002FEF30E019C0262F2695269526952E3129
:102BC00020F5FC01E20FF11D677081E090E001C08B
:102BD000880F6A95EAF79281892B828308952F3FA7
:102BE00039F03F5F363041F041914613F8CF0DC0C8
:102BF0004111F7CF232FF5CF2F3F39F0FC01E20F22
:102C0000F11D27FDFA95628308950895CF9384E01E
:102C100090E00E94C81FC82F81E290E00E94C81F68
:102C20002C2F30E0A901582BCA01CF9108956FEEE7
:102C30007EEF80E090E00E94FA1F60E082E090E08A
:102C40000E94DC1F60E083E090E00E94DC1F109295
:102C5000A0021092A1021092A2021092A30260E0C0
:102C600084E090E00E94DC1F60E081E290E00E943E
:102C7000DC1F60E085E090E00E94DC1F60E086E001
:102C800090E00E94DC1F6FEF87E090E00E94DC1F65
:102C900040E050E0BA0188E090E00E94EE1F60E062
:102CA0008DE090E00E94DC1F40E050E0BA0188E136
:102CB00090E00E94EE1F60E087E190E00E94DC1F40
:102CC00040E050E0BA018CE190E00E94EE1F60E02D
:102CD00080E290E00E94DC1F1092AF021092B002DE
:102CE0001092B1021092B20284E080618093AF0230
:102CF0004091AF025091B0026091B1027091B20266
:102D00008FE090E00E94EE1F40E050E0BA0183E1C6
:102D100090E00C94EE1F80919F02811110929F020F
:102D2000089590919E028091D801892B20919D0257
:102D3000982F922B9093070280919F028823D9F0BD
:102D4000892B8093070280910601882331F08091BE
:102D5000C10287FF02C08EE101C086E0E9E0F2E037
:102D600090E0815028F021912223D9F39F5FF9CF81
:102D700091110E948B16E091C302F091C40230972A
:102D8000A9F080910601882359F08091C10287FF44
:102D900007C0809107028093080285E080930702B4
:102DA0000280F381E02D87E092E009940895BF92BC
:102DB000CF92DF92EF92FF920F931F93CF93DF9307
:102DC0008C01C090A002D090A102E090A202F090ED
:102DD000A3028091980290919902A0919A02B091D9
:102DE0009B02C82AD92AEA2AFB2ACFE1D0E0D701E0
:102DF000C6010C2E04C0B695A795979587950A94A1
:102E0000D2F780FF07C0BC2EB8018C2F0E94D40AD5
:102E1000019719F4219758F7B12C8B2DDF91CF91A1
:102E20001F910F91FF90EF90DF90CF90BF9008958A
:102E3000CF93DF93EC010E94D716BE010E94D40A03
:102E4000DF91CF910895292F220F920F990F890FAB
:102E5000682F669566956695982F977085E0689FB0
:102E6000B001112440E050E080E0FA01E60FF71FC6
:102E7000EF59FD4F208130E0092E02C0369527958D
:102E80000A94E2F721703327042E01C0220F0A941E
:102E9000EAF7822B4F5F5F4F4530510531F70895B8
:102EA000292F220F920F990F890FA82FA695A6956B
:102EB000A695877051E001C0550F8A95EAF785E025
:102EC000A89FD001112420E030E070E0F901EA0F62
:102ED000FB1FEF59FD4F4081CB01022E02C096959A
:102EE00087950A94E2F78170992781958427852335
:102EF000842780832F5F3F4F2530310539F70895B0
:102F00000E944D0D609398027093990280939A02EB
:102F100090939B020C945C1D0F931F9341E050E033
:102F200060E070E004C0440F551F661F771F8A954C
:102F3000D2F7409550956095709580919802909148
:102F40009902A0919A02B0919B028A019B010823E9
:102F500019232A233B23C901B8011F910F910C9417
:102F6000801720919C028095822380939C02982F49
:102F7000977079F430E0482F082E000C550B241779
:102F8000350739F08595859585950E948C171092A7
:102F90009C0208950F931F9341E050E060E070E0C1
:102FA00004C0440F551F661F771F8A95D2F7809182
:102FB000980290919902A0919A02B0919B028A0185
:102FC0009B01082B192B2A2B3B2BC901B8011F9100
:102FD0000F910C9480176093A0027093A1028093CC
:102FE000A2029093A3020C945C1D809160029091C8
:102FF0002F02891719F08F5F8770FBCF089580919A
:103000002E0282958F7009F054C080912B02882384
:1030100009F44FC080916002A0912F0260912902B3
:1030200070912A0240912C0250912D02B6E08A172D
:1030300009F43FC090E041155105C1F17F3F11F403
:103040006F3FA1F1B89FF001B99FF00D1124E05D31
:10305000FD4F218172132AC02081621327C0228173
:10306000211124C0238134812417350710F4215005
:103070003109241B350B283C3105C0F420912E0268
:103080002F70206120932E0226E0289FF001299FB7
:10309000F00D1124EB5CFD4F80818F708061808387
:1030A00089E292E00E94EB010C94F517019687707B
:1030B000BECF0895BF92CF92DF92EF92FF920F930F
:1030C0001F93CF93DF93CDB7DEB761970FB6F89418
:1030D000DEBF0FBECDBF8C0185E0F801DE011D967D
:1030E00001900D928A95E1F7D8013C9111962C91AF
:1030F00011971296EC9012971396CD90DC9014973E
:103100005091290260912A0280912C0290912D0207
:10311000009709F44FC16F3F19F45F3F09F44AC1AA
:10312000B0902B02BB2009F4ECC040912E02C816CF
:10313000D90628F0F601E81BF90BCF0104C08095F1
:1031400090958C0D9D1DFF24F394883C910548F0CB
:10315000F12C407F09F09FC089E292E00E94EB01D0
:1031600021C1842F807F09F044C0621312C0531321
:1031700010C0E1100EC04F70406140932E0289E2F2
:1031800092E00E94EB0180912E02D80115968C935B
:103190002EC0CD2819F12F3F11F43F3FF9F0FE2C3E
:1031A000E1101CC08091600240912F0256E084170C
:1031B00009F458C090E0589FF001599FF00D112478
:1031C000E05DFD4F6181261306C06081361303C0A8
:1031D0006281611103C001968770E9CFFE2CEE2059
:1031E00009F421C180912E02816080932E02F12C7E
:1031F0001AC162130AC0531308C0E11006C08091BF
:103200002E02D80115968C93B0C03D872E878D85F0
:103210009E850E94351D8823D1F1EE20C1F12091B9
:103220002E02822F82958F7090E0029774F0809129
:10323000290290912A0298878F831986DB86CA8695
:103240002C87CE0107960E94EB0186E0F801A9E2E7
:10325000B2E001900D928A95E1F70E94FF17FF24DA
:10326000F394E1C03D872E878D859E850E941817B7
:10327000292F22952F7030E0223031050CF0C7C085
:103280009F7009F0C1C0805E883008F4CCC0C801CE
:103290000E94EB01E4CF621314C0531312C0E1107B
:1032A00010C080912E02F8018583C8010E94EB01B5
:1032B00086E0E9E2F2E0DF011D928A95E9F7FB2C56
:1032C000B2C03D872E878D859E850E94351D88233F
:1032D000F1F2EE20E1F220912E02822F82958F7082
:1032E00090E002970CF4B1CF8091290290912A02CC
:1032F0009A8389831B82DD82CC822E83CE01019644
:10330000A2CFC816D90638F0C81AD90AB8ECCB161D
:10331000D10450F007C0809590958C0D9D1D883C80
:10332000910510F0F12C3EC0FE2CEE2009F4AFCF39
:10333000621327C0531325C020912E0220FD18C010
:10334000822F82958F70482F50E04115510581F0F2
:10335000F80125834F30510541F08F5F982F9295EA
:10336000907F822F8F70892B8583C8010E94EB018B
:1033700086E0F801A9E2B2E001900D928A95E1F7AA
:1033800052C03D872E878D859E850E94351D8111F7
:103390005CCF80912E02816080932E02C8010E9432
:1033A000EB0141C0E9E2F2E086E0DF011D928A957F
:1033B000E9F739C0EE2009F46ACF3D872E878D8565
:1033C0009E850E94351DF82E882309F460CF86E083
:1033D000F801A9E2B2E001900D928A95E1F780919F
:1033E000290290912A020E94181792959F70963098
:1033F00041F48091280291E08927809328029093DC
:1034000027020E94FF170FC081113DCF0CC024304E
:1034100031050CF03CCF9F7009F435CFF801958150
:10342000907F09F030CF8F2D61960FB6F894DEBFF4
:103430000FBECDBFDF91CF911F910F91FF90EF9005
:10344000DF90CF90BF9008950895CF93DF9300D081
:103450001F92CDB7DEB79C019091A802911105C0D3
:103460008091FD01843049F504C0923011F0943010
:1034700021F584E089833B832A8382E08093E900FD
:103480008FEF9091E800815095FD06C095ED9A95DB
:10349000F1F700008111F5CF8091E80085FF0DC0A4
:1034A00040E050E063E070E0CE0101960E944E10D3
:1034B0008091E8008E778093E8000F900F900F9036
:1034C000DF91CF910895CF93DF9300D01F92CDB7B6
:1034D000DEB72091FD01243031F523E029838058A7
:1034E00091099B838A8382E08093E9008FEF90911A
:1034F000E800815095FD06C095ED9A95F1F7000022
:103500008111F5CF8091E80085FF0DC040E050E0CB
:1035100063E070E0CE0101960E944E108091E800B9
:103520008E778093E8000F900F900F90DF91CF91EE
:1035300008952091E4003091E50095E64091EC007B
:10354000842F817040FF22C08091E80080FD1CC064
:103550008091FD01882391F0853091F08091EB00FE
:1035600085FD10C04091E4005091E50042175307DB
:1035700029F39A01915011F784E0089582E00895AB
:1035800083E0089581E0089580E008954091E80087
:1035900042FFDECF08958091FF0187FF11C0809127
:1035A000E80082FD05C08091FD018111F8CF11C0B6
:1035B0008091E8008B770BC08091FD01882349F052
:1035C0008091E80080FFF8CF8091E8008E778093AB
:1035D000E8000895982F973058F59093E9009817D0
:1035E00039F07091EC002091ED005091F00003C093
:1035F000242F762F50E021FF19C03091EB003E7F41
:103600003093EB003091ED003D7F3093ED00309131
:10361000EB0031603093EB007093EC002093ED00F1
:103620005093F0002091EE0027FF07C09F5FD3CF9B
:103630008F708093E90081E0089580E008952091E3
:103640000502309106022617370748F0611571050B
:1036500039F42091E8002E772093E80001C0B901E9
:1036600040E061157105A9F12091FD01222309F4C3
:1036700043C0253009F442C02091E80023FD40C03A
:103680002091E80022FD32C02091E80020FFE9CF20
:103690004091F3002091F20030E0342BFC01CF0187
:1036A0006115710559F02830310540F481918093FE
:1036B000F100615071092F5F3F4FF1CF41E0283099
:1036C000310509F040E02091E8002E772093E800D2
:1036D000C8CF4111C9CF0AC08091FD01882361F094
:1036E000853061F08091E80083FD0AC08091E80098
:1036F00082FFF2CF80E0089582E0089583E008958C
:1037000081E00895CF93DF93CDB7DEB72A970FB648
:10371000F894DEBF0FBECDBF84B7877F84BF0FB6DE
:10372000F894A89580916000886180936000109261
:1037300060000FBE80E8809361001092610085B741
:10374000806885BF85B7806885BF0E949E130E94F0
:10375000BD138091E20084608093E20078948091B0
:10376000FD018823A1F01091E9001F709091EC00F9
:10377000892F817090FD80E8182B1092E9008091CC
:10378000E80083FD0E9485101F701093E90082E01D
:1037900084BD93E095BD9AEF97BD80936E000E9423
:1037A000C40D90E090930801809307010E94AB0E36
:1037B0000E94BA0EA3EBB2E0E6ECF2E06EE0F62E69
:1037C000FE0E11921D92FE12FCCF8EE090E00E9440
:1037D0002A208093A9029093AA02FC010E962BEF57
:1037E0002193E817F907E1F780E090E00E94D61FE7
:1037F0008F3E9E4F11F00E9417168CE090E00E94C1
:10380000C81F90E0A0E0B0E08093AB029093AC02C0
:10381000A093AD02B093AE0289EA8093800089E064
:103820008093810024982C983F988AB18F7C8AB924
:103830006E98479A8BB180638BB9769A8FE090E04F
:103840000E94D01F6093AF027093B0028093B102C8
:103850009093B20267708FEF689FB0011124759545
:1038600067957595679577277093890060938800B1
:1038700070938B0060938A0070938D0060938C002E
:103880000E943B0E80E090E00E94D61F8F3E9E4F2C
:1038900011F00E94171682E090E00E94C81F8093EA
:1038A000D5020E9406169093C2028093C10283E063
:1038B00090E00E94C81F682F70E080E090E00E94B6
:1038C000EB1789E091E09093C4028093C302EE2449
:1038D000EA94CC24C394D12C90E1892E22E1522E7B
:1038E00038E1A32EB12C40E4942E8091FD01853067
:1038F00009F043C08091FD01843009F11092C502A6
:103900000FB6F894A895A09260000FBE9092600048
:1039100083B7817F846083BF83B7816083BF7894DE
:10392000889583B78E7F83BF0FB6F894A895809152
:103930006000886180936000109260000FBE8091EB
:10394000FC01882391F20E94C40D90E0909308013D
:10395000809307010E94AB0E0E94BA0EE6ECF2E0E3
:103960001192FE12FDCF0E94770FE6ECF2E08191FA
:10397000811167C0FE12FBCFB8CF0E94770FE6ED32
:10398000F2E0A6ECB2E000E010E0702F6D91219122
:103990002627B1F180E090E030E0782EA901082ED2
:1039A00002C0559547950A94E2F740FF25C08983E8
:1039B0007A83C60102C0880F991F7A94E2F73C010E
:1039C000862F90E08621972121E0892B09F420E0C1
:1039D0002B830E946E158160782F9D838C83498193
:1039E0005A816B818D810E94C009F801EA52FD4F16
:1039F00080816826608219C001968630910569F63B
:103A00000F5F1F4F0E30110509F0BFCFEE82EF821E
:103A100018860E946E158160782F9A8789874E815B
:103A20005F8168858A850E94C0091091D4020E9436
:103A3000C20A181709F459CF0E94C20A8093D4020F
:103A400054CF89BC59BC09B400FEFDCF8091D80089
:103A50008F7D8093D8008091E00082608093E000A9
:103A60008091E00081FDFCCF40CF0E941817292FE4
:103A70002F7092959F70E92FF0E03297EE30F105AC
:103A8000B8F4E658FF4F0C942420803F99F018F4C6
:103A9000883E70F40FC0843F59F40CC0883E50F04B
:103AA000813F31F407C0822F8695869586950895CB
:103AB00080E0089581E0089510929E0210929D0288
:103AC0000E94911680E090E00E94AC0A80E090E0B5
:103AD0000C94960A80910601882331F08091C102EE
:103AE00087FF02C08EE101C086E0E9E0F2E0DF017D
:103AF0001D928A95E9F70C945C1D882341F080950E
:103B00009091D80189238093D8010C94911608953F
:103B1000882339F09091D801892B8093D8010C9497
:103B200091160895882309F458C0682F823869F4E3
:103B30000E94C20A81FF51C069E387E092E00E94BF
:103B4000CE150E94911669E30EC0833891F40E944D
:103B5000C20A80FF42C063E587E092E00E94CE1572
:103B60000E94911663E587E092E00E94A3150C94F1
:103B70009116843869F40E94C20A82FF2EC067E45D
:103B800087E092E00E94CE150E94911667E4EBCF89
:103B90008CEF860F813A38F380E2860F883070F41C
:103BA000677081E090E001C0880F6A95EAF7809520
:103BB0009091D80189238093D801D9CF8BE5860FC6
:103BC000833020F480E090E00C94AC0A685A6731AE
:103BD00020F480E090E00C94960A0895882309F47C
:103BE0000DC1682F8238B1F40E94C20A81FD06C15E
:103BF00069E387E092E00E94CE150E9491162FEFB4
:103C000081EE94E0215080409040E1F700C0000038
:103C100069E317C08338D9F40E94C20A80FDEEC060
:103C200063E587E092E00E94CE150E9491162FEF87
:103C300081EE94E0215080409040E1F700C0000008
:103C400063E587E092E00E94A3150C9491168438F6
:103C5000B1F40E94C20A82FDD1C067E487E092E01D
:103C60000E94CE150E9491162FEF81EE94E0215014
:103C700080409040E1F700C0000067E4E2CF8CEFA5
:103C8000860F813A28F487E092E00E94CE15DDCFBE
:103C900080E2860F883068F4677081E090E001C0B0
:103CA000880F6A95EAF79091D801892B8093D80103
:103CB000CCCF8BE5860F833070F4653A29F0663AF5
:103CC00031F083E890E005C081E890E002C082E82E
:103CD00090E00C94AC0A88E5860F873108F08EC01E
:103CE000683A09F445C0693A09F445C06A3A09F4EA
:103CF00045C06B3A09F445C06C3A09F445C06B3BCA
:103D000009F445C06C3B09F445C06D3A09F445C05F
:103D1000603B09F445C06E3A09F445C06F3A09F4B6
:103D200045C0613B09F445C0623B09F445C0633BB3
:103D300009F445C0643B09F445C0653B09F445C03E
:103D4000663B09F445C0673B09F445C0683B09F48C
:103D500045C0693B09F445C06D3B09F445C06E3B65
:103D600009F445C06A3B09F445C080E090E044C0D6
:103D700082EE90E041C089EE90E03EC08AEE90E095
:103D80003BC085EB90E038C086EB90E035C083EB1C
:103D900090E032C084EB90E02FC087EB90E02CC025
:103DA0008CEC90E029C08DEC90E026C083E891E097
:103DB00023C08AE891E020C082E991E01DC084E937
:103DC00091E01AC081E292E017C083E292E014C051
:103DD00084E292E011C085E292E00EC086E292E0B9
:103DE0000BC087E292E008C08FE690E005C080E754
:103DF00090E002C08AE292E00C94960A0895CF9374
:103E0000C82F0E94EE1DC93349F42FEF87EE93E0CF
:103E1000215080409040E1F700C000008C2FCF91EE
:103E20000C94921D1092B9008CE08093B800089514
:103E3000EF92FF920F931F93CF93DF93182FEB0115
:103E40001092BC0084EA8093BC000E946E157C0135
:103E50009091BC0097FD0EC0CF3F8FEFD807C1F304
:103E60000E946E158E199F098C179D0788F38EEF9F
:103E70009FEF2EC09091B900987F983041F09091BB
:103E8000B900987F903119F08FEF9FEF21C0109308
:103E9000BB0084E88093BC000E946E158C01909159
:103EA000BC0097FD0CC0CF3F8FEFD807C1F30E9435
:103EB0006E15801B910B8C179D0788F3D8CF8091CE
:103EC000B900887F883111F08034F1F680E090E00D
:103ED000DF91CF911F910F91FF90EF9008950F9375
:103EE0001F93CF93DF93EB018093BB0084E8809313
:103EF000BC000E946E158C019091BC0097FD0EC015
:103F0000CF3F8FEFD807C1F30E946E15801B910B36
:103F10008C179D0788F38EEF9FEF0CC02091B9009E
:103F2000287F81E090E0283211F480E090E09195C4
:103F300081959109DF91CF911F910F9108950F9372
:103F40001F93CF93DF93EC0184E88093BC000E9421
:103F50006E158C019091BC0097FD0EC0CF3F8FEF86
:103F6000D807C1F30E946E15801B910B8C179D071B
:103F700088F38EEF9FEF03C08091BB0090E0DF914C
:103F8000CF911F910F91089584E98093BC0008950B
:103F9000F999FECF92BD81BDF89A992780B5089511
:103FA000A6E1B0E044E050E00C940220A8E1B0E0CB
:103FB00042E050E00C940220262FF999FECF92BDEA
:103FC00081BDF89A019700B4021639F01FBA20BDDE
:103FD0000FB6F894FA9AF99A0FBE08950396272F10
:103FE0000E94DD1F0E94DC1F252F0E94DD1F242F51
:103FF0000C94DD1F0196272F0E94DD1F0C94DC1FFF
:10400000DC01CB01FC01F999FECF06C0F2BDE1BD98
:10401000F89A319600B40D9241505040B8F7089587
:10402000AA1BBB1B51E107C0AA1FBB1FA617B707DE
:1040300010F0A61BB70B881F991F5A95A9F78095FA
:104040009095BC01CD010895EE0FFF1F0590F491EE
:10405000E02D0994CF93DF938230910510F482E034
:1040600090E0E091E602F091E70220E030E0C0E06D
:10407000D0E0309711F14081518148175907C0F0C5
:104080004817590761F482819381209719F09B8327
:104090008A832BC09093E7028093E60226C0211505
:1040A000310519F04217530718F49A01BE01DF01D8
:1040B000EF010280F381E02DDCCF2115310509F1FC
:1040C000281B390B2430310590F412968D919C9168
:1040D00013976115710521F0FB019383828304C05E
:1040E0009093E7028093E602FD01329644C0FD0101
:1040F000E20FF31F81939193225031092D933C934A
:104100003AC02091E4023091E502232B41F4209142
:104110000201309103013093E5022093E4022091E3
:104120000001309101012115310541F42DB73EB751
:104130004091040150910501241B350BE091E402EC
:10414000F091E502E217F307A0F42E1B3F0B2817AE
:10415000390778F0AC014E5F5F4F2417350748F000
:104160004E0F5F1F5093E5024093E40281939193B9
:1041700002C0E0E0F0E0CF01DF91CF9108950F930E
:104180001F93CF93DF93009709F48CC0FC01329703
:10419000138212820091E6021091E70201151105C7
:1041A00081F420813181820F931F2091E4023091AC
:1041B000E5022817390779F5F093E502E093E40268
:1041C00071C0D80140E050E0AE17BF0750F412961E
:1041D0002D913C911397AD012115310509F1D901BC
:1041E000F3CF9D01DA013383228360817181860FD1
:1041F000971F8217930769F4EC0128813981260FF4
:10420000371F2E5F3F4F318320838A819B819383A9
:104210008283452B29F4F093E702E093E60242C043
:104220001396FC93EE931297ED01499159919E01DB
:10423000240F351FE217F30771F480819181840FF9
:10424000951F029611969C938E938281938113966B
:104250009C938E931297E0E0F0E0D80112968D9136
:104260009C911397009719F0F8018C01F6CF8D916E
:104270009C9198012E5F3F4F820F931F2091E40283
:104280003091E5022817390769F4309729F4109224
:10429000E7021092E60202C0138212821093E50236
:1042A0000093E402DF91CF911F910F910895F8944C
:0242B000FFCF3E
:1042B2000000E8022000012000F914FC14241A6313
:1042C2001A251A000D010D020D030D040D050D0036
:1042D2000C010C020C030C040C050C000B010B026C
:1042E2000B030B040B050B000A010A020A030A0462
:1042F2000A050A000901090209030904090509005E
:10430200080108020803080408050800070107025B
:104312000703070407050700060106020603060451
:10432200060506000501050205030504050505004D
:10433200040104020403040404050400030103024B
:104342000303030403050300020102020203020441
:10435200020502000101010201030104010501003D
:0C43620000010002000300040005000040
:00000001FF
